:1000000065C0000083C0000081C000007FC0000008
:100010007DC000007BC0000079C0000077C00000F8
:1000200075C0000073C0000071C000006FC0000008
:100030006DC000006BC0000069C0000067C0000018
:1000400065C0000063C0000061C000005FC0000028
:100050005DC000005BC0000059C0000057C0000038
:1000600055C0000010C4000051C000004FC0000087
:100070004DC000004BC0000049C0000047C0000058
:1000800045C0000043C0000041C000003FC0000068
:10009000FFC400003BC0000039C0000037C00000B2
:1000A00035C0000033C0000031C000002FC0000088
:1000B0002DC000002BC0000029C0000027C0000098
:1000C00025C0000023C0000021C0000011241FBE75
:1000D000CFEFD1E2DEBFCDBF00E00CBF14E0A0E067
:1000E000B2E0EEEBF9E100E00BBF02C007900D9229
:1000F000AA31B107D9F727E0AAE1B4E001C01D9207
:10010000AC3AB207E1F784D50C94DD0C79CF80913D
:10011000000290910102089580931C040895809339
:100120001E040895FC01E65EFB4F658308958093ED
:100130001D04089520E030E09091BE04982311F052
:1001400021E030E0C90108958091BD0490E0089558
:10015000FC01E654FB4F858190E00895362F20E0A6
:10016000280F391FC9010895282F30E0C9010895CB
:100170008070892F90E008950F931F93CF93DF93A2
:100180008091020590910305892B09F4B8C08091F4
:100190001C048E3F09F4A9C08091000290910102D5
:1001A000892B29F41092010586E080930005809147
:1001B000010590E06091000570E0681B790B8654A2
:1001C0009B4F36D390910105980F90930105809134
:1001D0000005981718F442D2019771F0709101054B
:1001E000472F50E0DA0111978A010250104060E079
:1001F000ED01C654DB4F18C080910105882309F03A
:1002000071C086E090E073C0F901E654FB4F808135
:100210008F3F19F481818F3F61F02017310719F466
:1002200088818F3F31F06F5F262F30E02A173B0720
:100230005CF36623A1F090E0421B530B08C0E65428
:10024000FB4FDF01A20FB31F8C9180839F5FE92FCB
:10025000F0E0E417F5079CF3761B709301052091FD
:10026000010580910005281728F190911C048091C8
:10027000BC049817B9F56091BD046C5F60930005EC
:10028000261788F4822F90E070E0681B790B865463
:100290009B4FCED290910105980F909301058091CC
:1002A0000005981738F08091BD04A82FB0E020E039
:1002B00090E00CC085E090E09093010280930002F2
:1002C0001EC0E654FB4F8281980F2F5FE22FF0E0B3
:1002D000AE17BF07B4F7A654BB4F909513968C91F9
:1002E000891719F087E090E002C081E090E09093D8
:1002F0000102809300021092030510920205DF9123
:10030000CF911F910F9108951F93809102059091B5
:100310000305019709F45DC081E090E09093030527
:100320008093020580911D04893940F490911E0448
:10033000892F8150863028F0933819F084E090E0BE
:100340002FC08FEF80931A0480931B0480911D04AB
:10035000A82FB0E020E090E005C0E65EFB4F828170
:10036000980F2F5FE22FF0E0AE17BF07B4F7A65E3D
:10037000BB4F909513969C9380910002909101023F
:100380000697029708F430D110911D041C5F8AE192
:1003900094E0612F70E02DD1181759F082E090E0C1
:1003A00090930102809300021092030510920205BF
:1003B00010C080911E04823029F48091200490E0C6
:1003C000069602C086E090E038D1109201021092A9
:1003D00000021F91089598DF809100029091010220
:1003E000892B39F4C9DE80910002909101020597B2
:1003F000C9F30895282F8091020590910305892B58
:1004000091F420931C0483E080931E0460931F04E6
:10041000CA014093200480709093210485E080936A
:100420001D04D9CF0895FFCF282F80910205909108
:100430000305892BB1F420931C0482E080931E04F1
:1004400060931F048093200484E080931D04C3DF25
:100450003091C00420E08091BF04280F311DC901F4
:100460000895FFCF282F8091020590910305892BD5
:1004700071F420931C0483E080931E0460931F0496
:100480004093200484E080931D04A5CF0895FFCFFE
:10049000282F8091020590910305892B91F42093D8
:1004A0001C0482E080931E0460931F0481E080930B
:1004B000200484E080931D048EDF8091BF0490E0CF
:1004C0000895FFCF282F8091020590910305892B75
:1004D00051F420931C0481E080931E0482E08093F9
:1004E0001D0479CF0895FFCF7EC008950F931F9309
:1004F0008C016F5F7F4F882777FD8095982F7BD683
:100500009B01AC0160E074E284EF99E4DED5AB01BD
:10051000BC01C80115D0892B19F420E030E00CC0D3
:1005200081E090E090930102809300021092030515
:100530001092020521E030E0C9011F910F9108954A
:10054000EF92FF920F931F937A018B0182E48093C5
:10055000C00088E98093C10086E08093C20060E01B
:1005600074E284EF99E4A8019701AFD516D66150E3
:1005700070407093C5006093C40060E074E284E74B
:1005800099E4A8019701A1D520E030E040E451E4CE
:10059000E6D660939A0770939B0780939C0790938D
:1005A0009D0720919A0730919B0740919C0750919D
:1005B0009D0760E070E08AE793E487D5EED57093FD
:1005C0009907609398077298739A8FEF8093C6008B
:1005D000109204061092050681E090E01F910F91A1
:1005E000FF90EF900895089580910506809304068A
:1005F0000895AC01F8947398729A20E030E011C02D
:100600008091C00085FFFCCF8091C0008064809302
:10061000C000FA01E20FF31F80818093C6002F5FB4
:100620003F4F2617370764F38091C00086FFFCCF49
:100630007298739A7894C90108951092A107109244
:10064000A0072091980730919907265F3F4F280F08
:10065000391F30939F0720939E070895AF92BF9252
:10066000CF92DF92EF92FF920F931F938091A0079A
:100670009091A10701969093A1078093A0072091E4
:10068000A0073091A10780919E0790919F07821744
:10069000930718F421E030E069C0A0909A07B09069
:1006A0009B07C0909C07D0909D07C601B5012BEA1F
:1006B0003AEA4AEA50E453D67B018C0120E030E06C
:1006C00040E85FE3FED4882314F461E04BC0C80126
:1006D000B70120E030E04FE753E43DD618160CF0A8
:1006E0003EC0C601B50120E030E04AE754E4EDD455
:1006F0005B016C0120E030E04AE755E430D67B0135
:100700008C0120E030E040E85FE3DBD488231CF478
:1007100061E070E020C0C801B70120E03FEF4FE783
:1007200057E419D61816A4F4C601B50120E030E04C
:1007300040E251E414D631D580E991E005C0FC01D6
:100740003197F1F76150704061157105C1F70CC028
:10075000C801B70122D5CB010197F1F705C0C80147
:10076000B7011BD56A95F1F720E030E0C9011F9170
:100770000F91FF90EF90DF90CF90BF90AF900895D2
:100780009091040680910506981719F420E030E056
:1007900017C09091040680910506981738F480914F
:1007A000050690910406282F30E008C080910506C8
:1007B00090910406282F30E020503F4F291B31092B
:1007C000C90108951F93182FDBDF8F3F910591F02A
:1007D000E0910506F0E0EC5FFA4F1083809105068A
:1007E0008F3F19F41092050605C0809105068F5FB2
:1007F000809305061F910895909104068091050647
:10080000981711F4EFEF12C0E0910406F0E0EC5FEE
:10081000FA4FE081809104068F3F19F4109204068C
:1008200005C0809104068F5F809304068E2F089583
:10083000EF92FF920F931F93CF93DF937C01EB0115
:100840009091040680910506981719F400E010E0D5
:1008500012C096DF8C01C817D9070CF48E01C0E0D6
:10086000D0E006C0C9DFF701EC0FFD1F80832196A1
:10087000C017D107BCF3C801DF91CF911F910F9131
:10088000FF90EF9008951F920F920FB60F920BB644
:100890000F9211242F933F934F935F936F937F9306
:1008A0008F939F93AF93BF93EF93FF938091C60075
:1008B00089DFFF91EF91BF91AF919F918F917F91D0
:1008C0006F915F914F913F912F910F900BBE0F90C1
:1008D0000FBE0F901F901895AC0120E030E00CC0C7
:1008E0008091C80085FFFCCFFA01E20FF31F8081E1
:1008F0008093CE002F5F3F4F261737078CF3089564
:10090000DC019091860680918706981711F480E0AB
:1009100008959091860680918706981719F420E033
:1009200030E017C09091860680918706981738F4BA
:100930008091870690918606282F30E008C080912C
:10094000870690918606282F30E020583F4F291BBC
:100950003109A901621773070CF4AB0120E030E004
:1009600020C09091860680918706981711F49FEF1A
:1009700012C0E0918606F0E0EA5FF94F9081809125
:1009800086068F3719F41092860605C08091860678
:100990008F5F80938606FD01E20FF31F90832F5F28
:1009A0003F4F24173507ECF2842F08959091860667
:1009B00080918706981719F420E030E017C09091D5
:1009C000860680918706981738F480918706909163
:1009D0008606282F30E008C0809187069091860611
:1009E000282F30E020583F4F291B3109C9010895B5
:1009F000482F90918606809187069817D1F09091A4
:100A0000860680918706981738F480918706909122
:100A10008606282F30E008C08091870690918606D0
:100A2000282F30E020583F4F291B31092F3731053F
:100A300091F0E0918706F0E0EA5FF94F4083809102
:100A400087068F3719F410928706089580918706DC
:100A50008F5F809387060895909186068091870620
:100A6000981711F4EFEF12C0E0918606F0E0EA5F0C
:100A7000F94FE081809186068F3719F4109286062F
:100A800005C0809186068F5F809386068E2F08951D
:100A90001F920F920FB60F920BB60F9211242F9345
:100AA0003F934F935F936F937F938F939F93AF93F6
:100AB000BF93EF93FF938091CE009ADFFF91EF9168
:100AC000BF91AF919F918F917F916F915F914F9166
:100AD0003F912F910F900BBE0F900FBE0F901F9064
:100AE0001895DF93CF930F920F92CDB7DEB7982F63
:100AF0008A3099F48DE089839A83FE0131969E01B4
:100B00002D5F3F4F8091C80085FFFCCF819180937E
:100B1000CE00E217F307B1F706C08091C80085FF49
:100B2000FCCF9093CE0080E090E00F900F90CF919B
:100B3000DF91089590918606809187069817D1F3EA
:100B40009091860680918706981738F480918706E1
:100B500090918606282F30E008C0809187069091FA
:100B60008606282F30E020583F4F291B3109232BC0
:100B700009F39091860680918706981711F4EFEF9C
:100B800015C0E0918606F0E0EA5FF94FE0818091C0
:100B900086068F3719F41092860605C08091860666
:100BA0008F5F80938606ED3009F4EAE08E2F90E0A7
:100BB000089521D39B01AC0160E074E284EF99E4D5
:100BC00084D2EBD26150704022E42093C80028E91F
:100BD0002093C90026E02093CA002FEF2093CE0077
:100BE0001092860610928706272F332727FD3A9505
:100BF0002093CD006093CC007298739A81E795E0C2
:100C00006AE975E09CD490938906809388060895DC
:100C1000CF93DF93CDB7DEB7EA970FB6F894DEBF78
:100C20000FBECDBF8CE1E8E0F2E0DE015D96019001
:100C30000D928A95E1F7EEE8F6E08CE3808380E29E
:100C400083838EE38087118660E071EE80E090E020
:100C5000B0DF61E070E080E090E048DC789484E20E
:100C600092E02DD56E0189E3C80ED11CFE017D9660
:100C70007F01F701019111917F0140E850E06CE1A3
:100C800070E0C801B7DB8FE19EE40197F1F700C087
:100C9000000040E050E06BE170E0C801ABDBEFE149
:100CA000FEE43197F1F700C0000040E050E06AE157
:100CB00070E0C8019FDB8FE19EE40197F1F700C06F
:100CC000000044E650E060E270E0C80193DBEFE131
:100CD000FEE43197F1F700C0000041E050E060E130
:100CE00070E0C80187DB8FE19EE40197F1F700C057
:100CF0000000EC14FD0409F0BCCF0F2EF2EACF2E59
:100D0000F7E0DF2EF02D0F2EFEE84F2EF6E05F2EDF
:100D1000F02D0F2EF8E9AF2EF6E0BF2EF02D49AEE4
:100D20005AAEF6018081918154D48F3309F05AC0B4
:100D3000CE0101967C014E019DE1890E911C34018A
:100D4000F301819191913F01282E392E64E270E0E8
:100D50006BDB8C018FE99FE00197F1F700C0000089
:100D6000D6D9EFE9FFE03197F1F700C00000019715
:100D700089F5F701808191818017910759F11183DD
:100D80000083822D932D6AE070E04CD3605DF20108
:100D90006183805D8283C80168EE73E043D3605D48
:100DA000648364E670E03ED3605D65836AE070E072
:100DB00039D3605D6683805D878309AD1AADF80124
:100DC00081918F01F6016281738190E040D40A1510
:100DD0001B05A9F7F2E0EF0EF11CE814F90409F085
:100DE000AFCF9FCF8C3329F410928D0610928C06D2
:100DF00098CF8E3309F023C1E0918C06F0918D06D7
:100E0000E856F94F1082E8E9F6E001900020E9F792
:100E10003197AF014859564068E976E088E197E09C
:100E200048D36DE572E088E996E040D3892B09F458
:100E30002BC100E010E00F5F1F4F6DE572E080E016
:100E400090E034D3892BB9F76DE572E088E197E043
:100E50002DD30130110561F442E050E06FE572E0FE
:100E600031D3892B09F0DFC082E692E028D4DBC0C1
:100E70000230110549F50097D9F088248A94982CFE
:100E8000EE24EA94FE2C0230110519F4F2D27C0112
:100E900005C00130110511F4ECD24C0101501109CB
:100EA0006DE572E080E090E001D3009761F706C045
:100EB00088248A94982CEE24EA94FE2CA4016EE1F6
:100EC00070E0C70197DAAFC00330110509F04CC0DC
:100ED000009721F188248A94982C66246A94762CB1
:100EE000EE24EA94FE2C0330110519F4C2D27C01E1
:100EF0000BC00230110519F4BCD23C0105C0013011
:100F0000110511F4B6D24C01015011096DE572E0E2
:100F100080E090E0CBD2009731F709C088248A9412
:100F2000982C66246A94762CEE24EA94FE2C40E2F7
:100F300050E06CE170E0C7015DDA8FE99FE0019756
:100F4000F1F700C00000A40160E270E0C70152DACE
:100F5000EFE9FFE03197F1F700C00000A3016EE177
:100F600070E0C70147DA5FC00430110509F05BC0CB
:100F7000009709F48FC00F2EF3E08F2E912CF02DE7
:100F800066246A94762C22242A94322CEE24EA9445
:100F9000FE2C0430110519F46CD27C0117C003300B
:100FA000110519F466D21C0111C00230110519F4A3
:100FB00060D23C010BC00130110541F45AD24C0102
:100FC000819724F06894882485F8912C01501109A8
:100FD0006DE572E080E090E069D20097D1F6A4015F
:100FE0006CE170E0C70106DA8FE99FE00197F1F745
:100FF00000C000006114710459F0A30160E270E0C8
:10100000C701F8D9EFE9FFE03197F1F700C0000020
:10101000A1016EE170E0C701EDD98FE99FE0019772
:10102000F1F700C00000E8E9F6E0A8E1B7E088E1E8
:1010300097E011921D92E817F907D9F772CE209127
:101040008C0630918D062F3731057CF010928D067D
:1010500010928C06E8E9F6E0A8E1B7E028E137E075
:1010600011921D92E217F307D9F720918C06309167
:101070008D06F901E856F94F80832F5F3F4F30937B
:101080008D0620938C064DCE6DE572E088E197E0E9
:101090000DD2C9CF43E050E06CE170E08FEF9FEFDD
:1010A000A9D9EFE9FFE03197F1F700C0000066240D
:1010B0006A94762C22242A94322CEE24EA94FE2C74
:1010C0009CCFD4D008F481E008950CD00AC102D19D
:1010D00040F0F9D030F021F45F3F19F0EBC051112E
:1010E00034C1EEC00FD198F39923C9F35523B1F35E
:1010F000951B550BBB27AA2762177307840738F087
:101100009F5F5F4F220F331F441FAA1FA9F333D0E5
:101110000E2E3AF0E0E830D091505040E695001C99
:10112000CAF729D0FE2F27D0660F771F881FBB1F55
:10113000261737074807AB07B0E809F0BB0B802D2F
:10114000BF01FF2793585F4F2AF09E3F510568F07B
:10115000B1C0FBC05F3FECF3983EDCF3869577951A
:101160006795B795F7959F5FC9F7880F911D96957D
:10117000879597F90895E1E0660F771F881FBB1FD9
:10118000621773078407BA0720F0621B730B840B86
:10119000BA0BEE1F88F7E0950895BCD088F09F57F2
:1011A00090F0B92F9927B751A0F0D1F0660F771FB3
:1011B000881F991F1AF0BA95C9F712C0B13081F093
:1011C000C3D0B1E00895C0C0672F782F8827B85FDB
:1011D00039F0B93FCCF3869577956795B395D9F7F4
:1011E0003EF490958095709561957F4F8F4F9F4FFE
:1011F0000895E89409C097FB3EF49095809570950A
:1012000061957F4F8F4F9F4F9923A9F0F92F96E952
:10121000BB279395F695879577956795B795F111C7
:10122000F8CFFAF4BB0F11F460FF1BC06F5F7F4F64
:101230008F4F9F4F16C0882311F096E911C0772376
:1012400021F09EE8872F762F05C0662371F096E87F
:10125000862F70E060E02AF09A95660F771F881F4E
:10126000DAF7880F9695879597F90895990F0008F2
:10127000550FAA0BE0E8FEEF16161706E807F90768
:10128000C0F012161306E407F50798F0621B730B03
:10129000840B950B39F40A2661F0232B242B252B84
:1012A00021F408950A2609F4A140A6958FEF811D27
:1012B000811D089597F99F6780E870E060E00895C8
:1012C0009FEF80EC089500240A941616170618065E
:1012D0000906089500240A9412161306140605063A
:1012E0000895092E0394000C11F4882352F0BB0FCB
:1012F00040F4BF2B11F460FF04C06F5F7F4F8F4F2E
:101300009F4F089557FD9058440F551F59F05F3F68
:1013100071F04795880F97FB991F61F09F3F79F017
:1013200087950895121613061406551FF2CF469599
:10133000F1DF08C0161617061806991FF1CF86951B
:101340007105610508940895E894BB2766277727FF
:10135000CB0197F908958ADF08F48FEF08950BD039
:10136000C0CFB1DF28F0B6DF18F0952309F0A2CF87
:10137000A7CF1124EACFC6DFA0F3959FD1F3950F35
:1013800050E0551F629FF001729FBB27F00DB11D09
:10139000639FAA27F00DB11DAA1F649F6627B00D99
:1013A000A11D661F829F2227B00DA11D621F739F82
:1013B000B00DA11D621F839FA00D611D221F749F90
:1013C0003327A00D611D231F849F600D211D822FD7
:1013D000762F6A2F11249F5750408AF0E1F088231E
:1013E0004AF0EE0FFF1FBB1F661F771F881F91502B
:1013F0005040A9F79E3F510570F05CCFA6CF5F3FEC
:10140000ECF3983EDCF3869577956795B795F7955D
:10141000E7959F5FC1F7FE2B880F911D96958795E5
:1014200097F9089597FB072E16F4009406D077FDE0
:1014300008D00BD007FC05D03EF4909581959F4FC6
:101440000895709561957F4F0895AA1BBB1B51E1CC
:1014500007C0AA1FBB1FA617B70710F0A61BB70B24
:10146000881F991F5A95A9F780959095BC01CD01C9
:101470000895FC0188279927E89421912032E9F307
:10148000293010F02E30C8F32B3239F02D3231F4E0
:10149000689403C04CD0820F911D219120532A30B3
:1014A000C8F31EF4909581959F4F08954AE856E041
:1014B00017C0FB01DC0102C001900D924150504069
:1014C000D8F70895FB01DC014150504030F08D9178
:1014D0000190801919F40020B9F7881B990B089521
:1014E000FA01A191B081009719F41097E1F0CD01B4
:1014F000DC01CD010D90002011F4C00113C0FB01EF
:101500002191222319F02015D9F7F3CFFB01219166
:10151000201519F41E92119606C02223C1F70D90D2
:101520000020A1F7D001FA01A193B08308957AE0D9
:10153000979F902D879F802D910D112408950F93D3
:101540001F93CF93DF93009731F46115710519F460
:1015500080E090E039C08B01EC016EE070E081E04A
:1015600090E0DDD0FC01892B99F380E8838301159D
:10157000110571F01387028781E883838091A207A8
:101580009091A307892B21F4F093A307E093A2077E
:101590002097C9F0D187C08783818260838380913F
:1015A000A4079091A507892B71F4F093A507E09308
:1015B000A4078091A6079091A707892B21F4F093A7
:1015C000A707E093A607CF01DF91CF911F910F915D
:1015D0000895CF93DF93EC012B8120FF33C026FFCA
:1015E0000AC02F7B2B838E819F8101969F838E83E0
:1015F0008A8190E029C022FF0FC0E881F9818081B3
:10160000082E000C990B009719F420622B831AC046
:101610003196F983E8830EC0EA85FB85199597FF1B
:1016200009C02B81019611F080E201C080E1822B7C
:101630008B8308C02E813F812F5F3F4F3F832E83D6
:10164000992702C08FEF9FEFDF91CF9108950F93FD
:101650001F93CF93DF93FB01238121FD03C08FEF05
:101660009FEF28C022FF16C0468157812481358113
:101670004217530744F4A081B1819D012F5F3F4F72
:10168000318320838C93268137812F5F3F4F3783AF
:10169000268310C0EB01092F182F0084F185E02D5F
:1016A0001995892BE1F68E819F8101969F838E8308
:1016B000812F902FDF91CF911F910F9108950F935C
:1016C0001F93CF93DF93E091A407F091A5072381A7
:1016D00021FF1BC08C01D0E0C0E0F80181918F0197
:1016E0006091A4077091A507DB011896ED91FC911C
:1016F0001997882331F01995892B79F3DFEFCFEF14
:10170000ECCF8AE01995892B19F08FEF9FEF02C07B
:101710008D2F9C2FDF91CF911F910F9108950F93E3
:101720001F93CF93DF93869F8001879F100D969F15
:10173000100D1124C8010DD0EC01009721F0A80173
:1017400060E070E033D1CE01DF91CF911F910F9116
:101750000895CF93DF938230910510F482E090E0FA
:10176000E091AA07F091AB0720E030E0C0E0D0E0C4
:10177000309711F14081518148175907C0F048173F
:10178000590761F482819381209719F09B838A83A2
:101790002BC09093AB078093AA0726C02115310573
:1017A00019F04217530718F49A01BE01DF01EF0147
:1017B0000280F381E02DDCCF2115310509F1281BD2
:1017C000390B2430310590F412968D919C9113972A
:1017D0006115710521F0FB019383828304C090930E
:1017E000AB078093AA07FD01329644C0FD01E20FCA
:1017F000F31F81939193225031092D933C933AC06A
:101800002091A8073091A907232B41F420910402CD
:10181000309105023093A9072093A8072091020276
:10182000309103022115310541F42DB73EB74091A7
:10183000060250910702241B350BE091A807F09196
:10184000A907E217F307A0F42E1B3F0B281739074F
:1018500078F0AC014E5F5F4F2417350748F04E0F0C
:101860005F1F5093A9074093A8078193919302C0EB
:10187000E0E0F0E0CF01DF91CF9108950F931F9347
:10188000CF93DF93009709F48CC0FC013297138249
:1018900012820091AA071091AB070115110581F47E
:1018A00020813181820F931F2091A8073091A907D1
:1018B0002817390779F5F093A907E093A80771C0B5
:1018C000D80140E050E0AE17BF0750F412962D91BA
:1018D0003C911397AD012115310509F1D901F3CFE1
:1018E0009D01DA013383228360817181860F971F06
:1018F0008217930769F4EC0128813981260F371F7D
:101900002E5F3F4F318320838A819B819383828323
:10191000452B29F4F093AB07E093AA0742C0139636
:10192000FC93EE931297ED01499159919E01240F7A
:10193000351FE217F30771F480819181840F951FA1
:10194000029611969C938E938281938113969C9319
:101950008E931297E0E0F0E0D80112968D919C9161
:101960001397009719F0F8018C01F6CF8D919C9197
:1019700098012E5F3F4F820F931F2091A80730914F
:10198000A9072817390769F4309729F41092AB0793
:101990001092AA0702C0138212821093A907009323
:1019A000A807DF91CF911F910F910895DC0101C02D
:0E19B0006D9341505040E0F70895F894FFCF3A
:1019BE0001000000AC0720000A000B001400150007
:1019CE0016001700180019001E001F00200021002D
:1019DE00220023000A0A54656C65426F742041721E
:1019EE006D20436F6E74726F6C6C65722028434D60
:1019FE002D37303029207665722D302E312E342041
:101A0E0028303232322D32303136290A002000672A
:101A1E006E00636D2D37303000434F4D4D5F54587F
:101A2E004641494C3A204661696C65642074726186
:101A3E006E736D697420696E737472756374696FF9
:101A4E006E207061636B65742100434F4D4D5F5482
:101A5E00584552524F523A20496E636F7272656307
:101A6E007420696E737472756374696F6E20706121
:101A7E00636B65742100434F4D4D5F52584641498B
:101A8E004C3A204661696C656420676574207374F6
:101A9E0061747573207061636B65742066726F6D0F
:101AAE00206465766963652100434F4D4D5F525842
:101ABE0057414954494E473A204E6F77207265631D
:101ACE00696576696E6720737461747573207061D1
:101ADE00636B65742100434F4D4D5F525854494D11
:101AEE00454F55543A205468657265206973206ECF
:101AFE006F20737461747573207061636B657421EC
:101B0E0000434F4D4D5F5258434F52525550543A29
:101B1E0020496E636F72726563742073746174759D
:101B2E0073207061636B657421005468697320695A
:101B3E007320756E6B6E6F776E206572726F72208A
:101B4E00636F64652100496E70757420766F6C74D6
:101B5E00616765206572726F722100416E676C65F8
:101B6E00206C696D6974206572726F7221004F76F8
:101B7E00657268656174206572726F7221004F75AF
:101B8E0074206F662072616E6765206572726F7267
:101B9E002100436865636B73756D206572726F7299
:101BAE0021004F7665726C6F6164206572726F7280
:101BBE002100496E737472756374696F6E20636F62
:0A1BCE006465206572726F722100D9
:00000001FF
