:1000000065C0000083C0000081C000007FC0000008
:100010007DC000007BC0000079C0000077C00000F8
:1000200075C0000073C0000071C000006FC0000008
:100030006DC000006BC0000069C0000067C0000018
:1000400065C0000063C0000061C000005FC0000028
:100050005DC000005BC0000059C0000057C0000038
:1000600055C0000010C4000051C000004FC0000087
:100070004DC000004BC0000049C0000047C0000058
:1000800045C0000043C0000041C000003FC0000068
:10009000FFC400003BC0000039C0000037C00000B2
:1000A00035C0000033C0000031C000002FC0000088
:1000B0002DC000002BC0000029C0000027C0000098
:1000C00025C0000023C0000021C0000011241FBE75
:1000D000CFEFD1E2DEBFCDBF00E00CBF14E0A0E067
:1000E000B2E0E6E0F9E100E00BBF02C007900D923C
:1000F000A031B107D9F727E0A0E1B4E001C01D921B
:10010000A23AB207E1F784D50C94810C79CF8091A3
:100110000002909101020895809312040895809343
:1001200014040895FC01E05FFB4F658308958093FC
:100130001304089520E030E09091B404982311F066
:1001400021E030E0C90108958091B30490E0089562
:10015000FC01E055FB4F858190E00895362F20E0AB
:10016000280F391FC9010895282F30E0C9010895CB
:100170008070892F90E008950F931F93CF93DF93A2
:100180008091F8049091F904892B09F4B8C080910A
:1001900012048E3F09F4A9C08091000290910102DF
:1001A000892B29F41092F70486E08093F60480915D
:1001B000F70490E06091F60470E0681B790B8055BD
:1001C0009B4F36D39091F704980F9093F70480914A
:1001D000F604981718F442D2019771F07091F70461
:1001E000472F50E0DA0111978A010250104060E079
:1001F000ED01C055DB4F18C08091F704882309F04A
:1002000071C086E090E073C0F901E055FB4F80813A
:100210008F3F19F481818F3F61F02017310719F466
:1002200088818F3F31F06F5F262F30E02A173B0720
:100230005CF36623A1F090E0421B530B08C0E0552D
:10024000FB4FDF01A20FB31F8C9180839F5FE92FCB
:10025000F0E0E417F5079CF3761B7093F704209108
:10026000F7048091F604281728F1909112048091E8
:10027000B2049817B9F56091B3046C5F6093F6040B
:10028000261788F4822F90E070E0681B790B805568
:100290009B4FCED29091F704980F9093F7048091E2
:1002A000F604981738F08091B304A82FB0E020E04E
:1002B00090E00CC085E090E09093010280930002F2
:1002C0001EC0E055FB4F8281980F2F5FE22FF0E0B8
:1002D000AE17BF07B4F7A055BB4F909513968C91FE
:1002E000891719F087E090E002C081E090E09093D8
:1002F0000102809300021092F9041092F804DF9139
:10030000CF911F910F9108951F938091F8049091C0
:10031000F904019709F45DC081E090E09093F9043D
:100320008093F80480911304893940F49091140467
:10033000892F8150863028F0933819F084E090E0BE
:100340002FC08FEF809310048093110480911304C9
:10035000A82FB0E020E090E005C0E05FFB4F828175
:10036000980F2F5FE22FF0E0AE17BF07B4F7A05F42
:10037000BB4F909513969C9380910002909101023F
:100380000697029708F430D1109113041C5F80E1A6
:1003900094E0612F70E02DD1181759F082E090E0C1
:1003A00090930102809300021092F9041092F804D5
:1003B00010C080911404823029F48091160490E0DA
:1003C000069602C086E090E038D1109201021092A9
:1003D00000021F91089598DF809100029091010220
:1003E000892B39F4C9DE80910002909101020597B2
:1003F000C9F30895282F8091F8049091F904892B6E
:1004000091F42093120483E0809314046093150404
:10041000CA014093160480709093170485E080937E
:100420001304D9CF0895FFCF282F8091F80490911D
:10043000F904892BB1F42093120482E08093140410
:10044000609315048093160484E080931304C3DF43
:100450003091B60420E08091B504280F311DC90108
:100460000895FFCF282F8091F8049091F904892BEB
:1004700071F42093120483E08093140460931504B4
:100480004093160484E080931304A5CF0895FFCF12
:10049000282F8091F8049091F904892B91F42093EE
:1004A000120482E0809314046093150481E0809329
:1004B000160484E0809313048EDF8091B50490E0ED
:1004C0000895FFCF282F8091F8049091F904892B8B
:1004D00051F42093120481E08093140482E080930D
:1004E000130479CF0895FFCF7EC008950F931F9313
:1004F0008C016F5F7F4F882777FD8095982F2DD6D1
:100500009B01AC0160E074E284EF99E490D5AB010B
:10051000BC01C80115D0892B19F420E030E00CC0D3
:1005200081E090E090930102809300021092F90420
:100530001092F80421E030E0C9011F910F91089555
:10054000EF92FF920F931F937A018B0182E48093C5
:10055000C00088E98093C10086E08093C20060E01B
:1005600074E284EF99E4A801970161D5C8D5615080
:1005700070407093C5006093C40060E074E284E74B
:1005800099E4A801970153D520E030E040E451E41C
:1005900098D66093900770939107809392079093F9
:1005A00093072091900730919107409192075091C5
:1005B000930760E070E08AE793E439D5A0D57093A3
:1005C0008F0760938E077298739A8FEF8093C6009F
:1005D0001092FA051092FB0581E090E01F910F91B7
:1005E000FF90EF90089508958091FB058093FA05A0
:1005F0000895AC01F8947398729A20E030E011C02D
:100600008091C00085FFFCCF8091C0008064809302
:10061000C000FA01E20FF31F80818093C6002F5FB4
:100620003F4F2617370764F38091C00086FFFCCF49
:100630007298739A7894C90108951092970710924E
:10064000960720918E0730918F07265F3F4F280F26
:10065000391F30939507209394070895AF92BF9266
:10066000CF92DF92EF92FF920F931F9380919607A4
:100670009091970701969093970780939607209102
:10068000960730919707809194079091950782176C
:10069000930718F421E030E069C0A0909007B09073
:1006A0009107C0909207D0909307C601B5012BEA3D
:1006B0003AEA4AEA50E405D67B018C0120E030E0BA
:1006C00040E85FE3B0D4882314F461E04BC0C80174
:1006D000B70120E030E04FE753E4EFD518160CF0F7
:1006E0003EC0C601B50120E030E04AE754E49FD4A3
:1006F0005B016C0120E030E04AE755E4E2D57B0184
:100700008C0120E030E040E85FE38DD488231CF4C6
:1007100061E070E020C0C801B70120E03FEF4FE783
:1007200057E4CBD51816A4F4C601B50120E030E09B
:1007300040E251E4C6D5E3D480E991E005C0FC0174
:100740003197F1F76150704061157105C1F70CC028
:10075000C801B701D4D4CB010197F1F705C0C80196
:10076000B701CDD46A95F1F720E030E0C9011F91BF
:100770000F91FF90EF90DF90CF90BF90AF900895D2
:100780009091FA058091FB05981719F420E030E06C
:1007900017C09091FA058091FB05981738F4809165
:1007A000FB059091FA05282F30E008C08091FB05E9
:1007B0009091FA05282F30E020503F4F291B310936
:1007C000C90108951F93182FDBDF8F3F910591F02A
:1007D000E091FB05F0E0E650FB4F10838091FB05B4
:1007E0008F3F19F41092FB0505C08091FB058F5FC8
:1007F0008093FB051F9108959091FA058091FB0568
:10080000981711F4EFEF12C0E091FA05F0E0E6500E
:10081000FB4FE0818091FA058F3F19F41092FA05A1
:1008200005C08091FA058F5F8093FA058E2F089599
:10083000EF92FF920F931F93CF93DF937C01EB0115
:100840009091FA058091FB05981719F400E010E0EB
:1008500012C096DF8C01C817D9070CF48E01C0E0D6
:10086000D0E006C0C9DFF701EC0FFD1F80832196A1
:10087000C017D107BCF3C801DF91CF911F910F9131
:10088000FF90EF9008951F920F920FB60F920BB644
:100890000F9211242F933F934F935F936F937F9306
:1008A0008F939F93AF93BF93EF93FF938091C60075
:1008B00089DFFF91EF91BF91AF919F918F917F91D0
:1008C0006F915F914F913F912F910F900BBE0F90C1
:1008D0000FBE0F901F901895AC0120E030E00CC0C7
:1008E0008091C80085FFFCCFFA01E20FF31F8081E1
:1008F0008093CE002F5F3F4F261737078CF3089564
:10090000DC0190917C0680917D06981711F480E0BF
:10091000089590917C0680917D06981719F420E047
:1009200030E017C090917C0680917D06981738F4CE
:1009300080917D0690917C06282F30E008C0809140
:100940007D0690917C06282F30E020583F4F291BD0
:100950003109A901621773070CF4AB0120E030E004
:1009600020C090917C0680917D06981711F49FEF2E
:1009700012C0E0917C06F0E0E450FA4F9081809143
:100980007C068F3719F410927C0605C080917C0696
:100990008F5F80937C06FD01E20FF31F90832F5F32
:1009A0003F4F24173507ECF2842F089590917C0671
:1009B00080917D06981719F420E030E017C09091DF
:1009C0007C0680917D06981738F480917D06909181
:1009D0007C06282F30E008C080917D0690917C062F
:1009E000282F30E020583F4F291B3109C9010895B5
:1009F000482F90917C0680917D069817D1F09091B8
:100A00007C0680917D06981738F480917D06909140
:100A10007C06282F30E008C080917D0690917C06EE
:100A2000282F30E020583F4F291B31092F3731053F
:100A300091F0E0917D06F0E0E450FA4F4083809120
:100A40007D068F3719F410927D06089580917D06FA
:100A50008F5F80937D06089590917C0680917D063E
:100A6000981711F4EFEF12C0E0917C06F0E0E4502B
:100A7000FA4FE08180917C068F3719F410927C0642
:100A800005C080917C068F5F80937C068E2F089531
:100A90001F920F920FB60F920BB60F9211242F9345
:100AA0003F934F935F936F937F938F939F93AF93F6
:100AB000BF93EF93FF938091CE009ADFFF91EF9168
:100AC000BF91AF919F918F917F916F915F914F9166
:100AD0003F912F910F900BBE0F900FBE0F901F9064
:100AE0001895DF93CF930F920F92CDB7DEB7982F63
:100AF0008A3099F48DE089839A83FE0131969E01B4
:100B00002D5F3F4F8091C80085FFFCCF819180937E
:100B1000CE00E217F307B1F706C08091C80085FF49
:100B2000FCCF9093CE0080E090E00F900F90CF919B
:100B3000DF91089590917C0680917D069817D1F3FE
:100B400090917C0680917D06981738F480917D06FF
:100B500090917C06282F30E008C080917D0690910E
:100B60007C06282F30E020583F4F291B3109232BCA
:100B700009F390917C0680917D06981711F4EFEFB0
:100B800015C0E0917C06F0E0E450FA4FE0818091DE
:100B90007C068F3719F410927C0605C080917C0684
:100BA0008F5F80937C06ED3009F4EAE08E2F90E0B1
:100BB0000895D3D29B01AC0160E074E284EF99E424
:100BC00036D29DD26150704022E42093C80028E9BB
:100BD0002093C90026E02093CA002FEF2093CE0077
:100BE00010927C0610927D06272F332727FD3A9519
:100BF0002093CD006093CC007298739A81E795E0C2
:100C00006AE975E040D490937F0680937E0608954C
:100C1000CF93DF93CDB7DEB7EE970FB6F894DEBF74
:100C20000FBECDBF8CE1E8E0F2E0DE015D96019001
:100C30000D928A95E1F7E4E8F6E08CE3808380E2A8
:100C400083838EE38087118660E071EE80E090E020
:100C5000B0DF61E070E080E090E048DC789484E20E
:100C600092E0D1D400E010E043E050E06CE170E0AD
:100C7000C801C0DB81EE94E00197F1F700C00000ED
:100C800044E650E060E270E0C801B4DBE1EEF4E07D
:100C90003197F1F700C000000F5F1F4F02331105BD
:100CA00019F70F2EF8E9CF2EF7E0DF2EF02D9E0179
:100CB000235E3F4F3AAF29AF39010F2EF4E84F2E94
:100CC000F6E05F2EF02D0F2EFEE88F2EF6E09F2E21
:100CD000F02D4BAE5CAEF601808191811ED48C3339
:100CE00029F410928306109282068FC18E3309F088
:100CF00021C1E0918206F0918306E257F94F1082FC
:100D0000EEE8F6E001900020E9F73197AF014E5888
:100D100056406EE876E08EE097E07DD36DE572E0B8
:100D20008EE896E075D3892B09F477C100E010E0D6
:100D30000F5F1F4F6DE572E080E090E069D3892B73
:100D4000B9F76DE572E08EE097E062D301301105EE
:100D500009F4E4C00230110549F50097D9F0EE24FA
:100D6000EA94FE2CAA24AA94BA2C0230110519F494
:100D700032D35C0105C00130110511F42CD37C0184
:100D8000015011096DE572E080E090E041D30097D9
:100D900061F706C0EE24EA94FE2CAA24AA94BA2C89
:100DA000A7016EE170E0C50125DBB8C00330110575
:100DB00009F04CC0009721F1AA24AA94BA2C22244D
:100DC0002A94322CEE24EA94FE2C0330110519F4F7
:100DD00002D37C010BC00230110519F4FCD21C01B6
:100DE00005C00130110511F4F6D25C010150110962
:100DF0006DE572E080E090E00BD3009731F709C019
:100E0000AA24AA94BA2C22242A94322CEE24EA94FE
:100E1000FE2C43E050E06CE170E0C701EBDA89EFB3
:100E200090E00197F1F700C00000A50160E270E0DA
:100E3000C701E0DAE9EFF0E03197F1F700C0000018
:100E4000A1016EE170E0C701D5DA68C00430110578
:100E500009F064C00097B9F10F2EF3E0AF2EB12C6A
:100E6000F02D22242A94322C2FEF3FEF3EAF2DAFEE
:100E7000EE24EA94FE2C0430110519F4ACD27C0166
:100E800018C00330110521F4A6D29EAF8DAF11C05A
:100E90000230110519F49FD21C010BC0013011055D
:100EA00041F499D25C01819724F06894AA24A5F8B2
:100EB000B12C015011096DE572E080E090E0A8D2FC
:100EC0000097C9F60FC00F2EF3E0AF2EB12CF02D16
:100ED00022242A94322C8FEF9FEF9EAF8DAFEE2409
:100EE000EA94FE2CA5016CE170E0C70183DAE9EF1A
:100EF000F0E03197F1F700C00000A10160E270E07E
:100F0000C70178DA89EF90E00197F1F700C000009F
:100F10004DAD5EAD6EE170E0C7016CDAEEE8F6E073
:100F2000AEE0B7E08EE097E011921D92E817F90766
:100F3000D9F76BC020918206309183062F37310597
:100F40007CF01092830610928206EEE8F6E0AEE0A6
:100F5000B7E02EE037E011921D92E217F307D9F7C0
:100F60002091820630918306F901E257F94F808380
:100F70002F5F3F4F309383062093820646C0F501D2
:100F8000819191915F01282E392E64E270E04CDA54
:100F90008C01BDD8019789F5F70180819181801777
:100FA000910759F111830083822D932D6AE070E03F
:100FB000EBD1605DF2016183805D8283C80168EEE0
:100FC00073E0E2D1605D648364E670E0DDD1605D72
:100FD00065836AE070E0D8D1605D6683805D878359
:100FE0000BAD1CADF80181918F01F6016281738117
:100FF00090E0D1D208151905A9F7F2E0EF0EF11C27
:10100000E614F70409F0BBCF66CE9E01235E3F4F86
:101010005901CE0101967C01B2CF6DE572E08EE000
:1010200097E0F6D17BCFD4D008F481E008950CD0BE
:101030000AC102D140F0F9D030F021F45F3F19F03D
:10104000EBC0511134C1EEC00FD198F39923C9F30D
:101050005523B1F3951B550BBB27AA2762177307BE
:10106000840738F09F5F5F4F220F331F441FAA1F72
:10107000A9F333D00E2E3AF0E0E830D09150504032
:10108000E695001CCAF729D0FE2F27D0660F771FE0
:10109000881FBB1F261737074807AB07B0E809F0C2
:1010A000BB0B802DBF01FF2793585F4F2AF09E3F57
:1010B000510568F0B1C0FBC05F3FECF3983EDCF334
:1010C000869577956795B795F7959F5FC9F7880FD0
:1010D000911D9695879597F90895E1E0660F771F22
:1010E000881FBB1F621773078407BA0720F0621BB3
:1010F000730B840BBA0BEE1F88F7E0950895BCD0F4
:1011000088F09F5790F0B92F9927B751A0F0D1F0F0
:10111000660F771F881F991F1AF0BA95C9F712C07A
:10112000B13081F0C3D0B1E00895C0C0672F782FEF
:101130008827B85F39F0B93FCCF3869577956795E6
:10114000B395D9F73EF490958095709561957F4F52
:101150008F4F9F4F0895E89409C097FB3EF49095F8
:101160008095709561957F4F8F4F9F4F9923A9F080
:10117000F92F96E9BB279395F6958795779567950F
:10118000B795F111F8CFFAF4BB0F11F460FF1BC053
:101190006F5F7F4F8F4F9F4F16C0882311F096E9E6
:1011A00011C0772321F09EE8872F762F05C0662394
:1011B00071F096E8862F70E060E02AF09A95660F4D
:1011C000771F881FDAF7880F9695879597F9089506
:1011D000990F0008550FAA0BE0E8FEEF1616170648
:1011E000E807F907C0F012161306E407F50798F0B0
:1011F000621B730B840B950B39F40A2661F0232BC9
:10120000242B252B21F408950A2609F4A140A69544
:101210008FEF811D811D089597F99F6780E870E029
:1012200060E008959FEF80EC089500240A9416165C
:10123000170618060906089500240A9412161306C4
:10124000140605060895092E0394000C11F4882352
:1012500052F0BB0F40F4BF2B11F460FF04C06F5F6E
:101260007F4F8F4F9F4F089557FD9058440F551F44
:1012700059F05F3F71F04795880F97FB991F61F018
:101280009F3F79F087950895121613061406551F8F
:10129000F2CF4695F1DF08C0161617061806991FFB
:1012A000F1CF86957105610508940895E894BB27F0
:1012B00066277727CB0197F908958ADF08F48FEF27
:1012C00008950BD0C0CFB1DF28F0B6DF18F095231A
:1012D00009F0A2CFA7CF1124EACFC6DFA0F3959FD4
:1012E000D1F3950F50E0551F629FF001729FBB270D
:1012F000F00DB11D639FAA27F00DB11DAA1F649FB9
:101300006627B00DA11D661F829F2227B00DA11D6B
:10131000621F739FB00DA11D621F839FA00D611DF1
:10132000221F749F3327A00D611D231F849F600D12
:10133000211D822F762F6A2F11249F5750408AF04B
:10134000E1F088234AF0EE0FFF1FBB1F661F771FD7
:10135000881F91505040A9F79E3F510570F05CCF17
:10136000A6CF5F3FECF3983EDCF3869577956795C3
:10137000B795F795E7959F5FC1F7FE2B880F911DF5
:101380009695879597F9089597FB072E16F4009484
:1013900006D077FD08D00BD007FC05D03EF4909521
:1013A00081959F4F0895709561957F4F0895AA1B71
:1013B000BB1B51E107C0AA1FBB1FA617B70710F040
:1013C000A61BB70B881F991F5A95A9F78095909572
:1013D000BC01CD010895FC0188279927E89421914B
:1013E0002032E9F3293010F02E30C8F32B3239F0D7
:1013F0002D3231F4689403C03ED0820F911D2191AB
:1014000020532A30C8F31EF4909581959F4F08957C
:1014100040E856E009C0FB01DC0102C001900D92DA
:1014200041505040D8F70895FA01A191B08100973A
:1014300019F41097E1F0CD01DC01CD010D900020F1
:1014400011F4C00113C0FB012191222319F02015D2
:10145000D9F7F3CFFB012191201519F41E921196B3
:1014600006C02223C1F70D900020A1F7D001FA0198
:10147000A193B08308957AE0979F902D879F802D48
:10148000910D112408950F931F93CF93DF9300972D
:1014900031F46115710519F480E090E039C08B01D9
:1014A000EC016EE070E081E090E0DDD0FC01892B82
:1014B00099F380E883830115110571F01387028782
:1014C00081E883838091980790919907892B21F473
:1014D000F0939907E09398072097C9F0D187C087C8
:1014E00083818260838380919A0790919B07892BE7
:1014F00071F4F0939B07E0939A0780919C07909179
:101500009D07892B21F4F0939D07E0939C07CF0161
:10151000DF91CF911F910F910895CF93DF93EC014D
:101520002B8120FF33C026FF0AC02F7B2B838E81A7
:101530009F8101969F838E838A8190E029C022FF3C
:101540000FC0E881F9818081082E000C990B00976B
:1015500019F420622B831AC03196F983E8830EC0F8
:10156000EA85FB85199597FF09C02B81019611F03B
:1015700080E201C080E1822B8B8308C02E813F81F5
:101580002F5F3F4F3F832E83992702C08FEF9FEF3E
:10159000DF91CF9108950F931F93CF93DF93FB01BA
:1015A000238121FD03C08FEF9FEF28C022FF16C0CB
:1015B00046815781248135814217530744F4A08125
:1015C000B1819D012F5F3F4F318320838C93268112
:1015D00037812F5F3F4F3783268310C0EB01092FE0
:1015E000182F0084F185E02D1995892BE1F68E8165
:1015F0009F8101969F838E83812F902FDF91CF91C2
:101600001F910F9108950F931F93CF93DF93E09154
:101610009A07F0919B07238121FF1BC08C01D0E02A
:10162000C0E0F80181918F0160919A0770919B074A
:10163000DB011896ED91FC911997882331F01995EB
:10164000892B79F3DFEFCFEFECCF8AE01995892B67
:1016500019F08FEF9FEF02C08D2F9C2FDF91CF915C
:101660001F910F9108950F931F93CF93DF93869F40
:101670008001879F100D969F100D1124C8010DD079
:10168000EC01009721F0A80160E070E033D1CE01B9
:10169000DF91CF911F910F910895CF93DF93823007
:1016A000910510F482E090E0E091A007F091A1078D
:1016B00020E030E0C0E0D0E0309711F1408151816E
:1016C00048175907C0F04817590761F48281938180
:1016D000209719F09B838A832BC09093A107809356
:1016E000A00726C02115310519F04217530718F439
:1016F0009A01BE01DF01EF010280F381E02DDCCF12
:101700002115310509F1281B390B2430310590F4DE
:1017100012968D919C9113976115710521F0FB0133
:101720009383828304C09093A1078093A007FD0157
:10173000329644C0FD01E20FF31F81939193225032
:1017400031092D933C933AC020919E0730919F0719
:10175000232B41F4209104023091050230939F071E
:1017600020939E072091020230910302211531053A
:1017700041F42DB73EB74091060250910702241B59
:10178000350BE0919E07F0919F07E217F307A0F455
:101790002E1B3F0B2817390778F0AC014E5F5F4FC7
:1017A0002417350748F04E0F5F1F50939F07409353
:1017B0009E078193919302C0E0E0F0E0CF01DF91BA
:1017C000CF9108950F931F93CF93DF93009709F460
:1017D0008CC0FC013297138212820091A0071091F5
:1017E000A1070115110581F420813181820F931F1A
:1017F00020919E0730919F072817390779F5F093BC
:101800009F07E0939E0771C0D80140E050E0AE17FB
:10181000BF0750F412962D913C911397AD012115FD
:10182000310509F1D901F3CF9D01DA013383228318
:1018300060817181860F971F8217930769F4EC010D
:1018400028813981260F371F2E5F3F4F3183208338
:101850008A819B8193838283452B29F4F093A1078E
:10186000E093A00742C01396FC93EE931297ED010C
:10187000499159919E01240F351FE217F30771F426
:1018800080819181840F951F029611969C938E936F
:101890008281938113969C938E931297E0E0F0E0FF
:1018A000D80112968D919C911397009719F0F80129
:1018B0008C01F6CF8D919C9198012E5F3F4F820F46
:1018C000931F20919E0730919F072817390769F4CD
:1018D000309729F41092A1071092A00702C013823A
:1018E000128210939F0700939E07DF91CF911F9163
:1018F0000F910895DC0101C06D9341505040E0F715
:061900000895F894FFCFEA
:1019060001000000A20720000A000B0014001500C9
:1019160016001700180019001E001F0020002100E5
:10192600220023000A0A54656C65426F74204172D6
:101936006D20436F6E74726F6C6C65722028434D18
:101946002D37303029207665722D302E312E3420F9
:1019560028303232322D32303136290A0020004307
:101966004F4D4D5F54584641494C3A204661696C8B
:101976006564207472616E736D697420696E737428
:1019860072756374696F6E207061636B6574210094
:10199600434F4D4D5F54584552524F523A20496E6F
:1019A600636F727265637420696E737472756374A3
:1019B600696F6E207061636B65742100434F4D4DF6
:1019C6005F52584641494C3A204661696C6564202D
:1019D60067657420737461747573207061636B65D9
:1019E600742066726F6D20646576696365210043B5
:1019F6004F4D4D5F525857414954494E473A204E34
:101A06006F7720726563696576696E6720737461A6
:101A1600747573207061636B65742100434F4D4D7F
:101A26005F525854494D454F55543A205468657293
:101A360065206973206E6F207374617475732070EE
:101A460061636B65742100434F4D4D5F5258434FA0
:101A560052525550543A20496E636F7272656374E0
:101A660020737461747573207061636B65742100F3
:101A76005468697320697320756E6B6E6F776E207C
:101A86006572726F7220636F64652100496E7075AE
:101A96007420766F6C74616765206572726F72214F
:101AA60000416E676C65206C696D697420657272A1
:101AB6006F7221004F766572686561742065727277
:101AC6006F7221004F7574206F662072616E6765B4
:101AD600206572726F722100436865636B73756D62
:101AE600206572726F7221004F7665726C6F616449
:101AF600206572726F722100496E73747275637419
:101B0600696F6E20636F6465206572726F72210063
:00000001FF
